{
  "_format": "hh-sol-artifact-1",
  "contractName": "ElectricBounser",
  "sourceName": "contracts/ElectricBounser.sol",
  "abi": [
    {
      "inputs": [],
      "stateMutability": "nonpayable",
      "type": "constructor"
    },
    {
      "anonymous": false,
      "inputs": [
        {
          "indexed": true,
          "internalType": "address",
          "name": "owner",
          "type": "address"
        },
        {
          "indexed": true,
          "internalType": "address",
          "name": "approved",
          "type": "address"
        },
        {
          "indexed": true,
          "internalType": "uint256",
          "name": "tokenId",
          "type": "uint256"
        }
      ],
      "name": "Approval",
      "type": "event"
    },
    {
      "anonymous": false,
      "inputs": [
        {
          "indexed": true,
          "internalType": "address",
          "name": "owner",
          "type": "address"
        },
        {
          "indexed": true,
          "internalType": "address",
          "name": "operator",
          "type": "address"
        },
        {
          "indexed": false,
          "internalType": "bool",
          "name": "approved",
          "type": "bool"
        }
      ],
      "name": "ApprovalForAll",
      "type": "event"
    },
    {
      "anonymous": false,
      "inputs": [
        {
          "indexed": true,
          "internalType": "address",
          "name": "previousOwner",
          "type": "address"
        },
        {
          "indexed": true,
          "internalType": "address",
          "name": "newOwner",
          "type": "address"
        }
      ],
      "name": "OwnershipTransferred",
      "type": "event"
    },
    {
      "anonymous": false,
      "inputs": [
        {
          "indexed": true,
          "internalType": "address",
          "name": "from",
          "type": "address"
        },
        {
          "indexed": true,
          "internalType": "address",
          "name": "to",
          "type": "address"
        },
        {
          "indexed": true,
          "internalType": "uint256",
          "name": "tokenId",
          "type": "uint256"
        }
      ],
      "name": "Transfer",
      "type": "event"
    },
    {
      "inputs": [
        {
          "internalType": "address",
          "name": "to",
          "type": "address"
        },
        {
          "internalType": "uint256",
          "name": "tokenId",
          "type": "uint256"
        }
      ],
      "name": "approve",
      "outputs": [],
      "stateMutability": "nonpayable",
      "type": "function"
    },
    {
      "inputs": [
        {
          "internalType": "address",
          "name": "owner",
          "type": "address"
        }
      ],
      "name": "balanceOf",
      "outputs": [
        {
          "internalType": "uint256",
          "name": "",
          "type": "uint256"
        }
      ],
      "stateMutability": "view",
      "type": "function"
    },
    {
      "inputs": [
        {
          "internalType": "uint256",
          "name": "tokenId",
          "type": "uint256"
        }
      ],
      "name": "getApproved",
      "outputs": [
        {
          "internalType": "address",
          "name": "",
          "type": "address"
        }
      ],
      "stateMutability": "view",
      "type": "function"
    },
    {
      "inputs": [
        {
          "internalType": "address",
          "name": "owner",
          "type": "address"
        },
        {
          "internalType": "address",
          "name": "operator",
          "type": "address"
        }
      ],
      "name": "isApprovedForAll",
      "outputs": [
        {
          "internalType": "bool",
          "name": "",
          "type": "bool"
        }
      ],
      "stateMutability": "view",
      "type": "function"
    },
    {
      "inputs": [],
      "name": "mint",
      "outputs": [],
      "stateMutability": "payable",
      "type": "function"
    },
    {
      "inputs": [],
      "name": "name",
      "outputs": [
        {
          "internalType": "string",
          "name": "",
          "type": "string"
        }
      ],
      "stateMutability": "view",
      "type": "function"
    },
    {
      "inputs": [],
      "name": "owner",
      "outputs": [
        {
          "internalType": "address",
          "name": "",
          "type": "address"
        }
      ],
      "stateMutability": "view",
      "type": "function"
    },
    {
      "inputs": [
        {
          "internalType": "uint256",
          "name": "tokenId",
          "type": "uint256"
        }
      ],
      "name": "ownerOf",
      "outputs": [
        {
          "internalType": "address",
          "name": "",
          "type": "address"
        }
      ],
      "stateMutability": "view",
      "type": "function"
    },
    {
      "inputs": [],
      "name": "renounceOwnership",
      "outputs": [],
      "stateMutability": "nonpayable",
      "type": "function"
    },
    {
      "inputs": [
        {
          "internalType": "address",
          "name": "from",
          "type": "address"
        },
        {
          "internalType": "address",
          "name": "to",
          "type": "address"
        },
        {
          "internalType": "uint256",
          "name": "tokenId",
          "type": "uint256"
        }
      ],
      "name": "safeTransferFrom",
      "outputs": [],
      "stateMutability": "nonpayable",
      "type": "function"
    },
    {
      "inputs": [
        {
          "internalType": "address",
          "name": "from",
          "type": "address"
        },
        {
          "internalType": "address",
          "name": "to",
          "type": "address"
        },
        {
          "internalType": "uint256",
          "name": "tokenId",
          "type": "uint256"
        },
        {
          "internalType": "bytes",
          "name": "data",
          "type": "bytes"
        }
      ],
      "name": "safeTransferFrom",
      "outputs": [],
      "stateMutability": "nonpayable",
      "type": "function"
    },
    {
      "inputs": [
        {
          "internalType": "address",
          "name": "operator",
          "type": "address"
        },
        {
          "internalType": "bool",
          "name": "approved",
          "type": "bool"
        }
      ],
      "name": "setApprovalForAll",
      "outputs": [],
      "stateMutability": "nonpayable",
      "type": "function"
    },
    {
      "inputs": [
        {
          "internalType": "bool",
          "name": "_isSaleActive",
          "type": "bool"
        }
      ],
      "name": "setSaleActive",
      "outputs": [],
      "stateMutability": "nonpayable",
      "type": "function"
    },
    {
      "inputs": [
        {
          "internalType": "bytes4",
          "name": "interfaceId",
          "type": "bytes4"
        }
      ],
      "name": "supportsInterface",
      "outputs": [
        {
          "internalType": "bool",
          "name": "",
          "type": "bool"
        }
      ],
      "stateMutability": "view",
      "type": "function"
    },
    {
      "inputs": [],
      "name": "symbol",
      "outputs": [
        {
          "internalType": "string",
          "name": "",
          "type": "string"
        }
      ],
      "stateMutability": "view",
      "type": "function"
    },
    {
      "inputs": [
        {
          "internalType": "uint256",
          "name": "tokenId",
          "type": "uint256"
        }
      ],
      "name": "tokenURI",
      "outputs": [
        {
          "internalType": "string",
          "name": "",
          "type": "string"
        }
      ],
      "stateMutability": "view",
      "type": "function"
    },
    {
      "inputs": [
        {
          "internalType": "address",
          "name": "from",
          "type": "address"
        },
        {
          "internalType": "address",
          "name": "to",
          "type": "address"
        },
        {
          "internalType": "uint256",
          "name": "tokenId",
          "type": "uint256"
        }
      ],
      "name": "transferFrom",
      "outputs": [],
      "stateMutability": "nonpayable",
      "type": "function"
    },
    {
      "inputs": [
        {
          "internalType": "address",
          "name": "newOwner",
          "type": "address"
        }
      ],
      "name": "transferOwnership",
      "outputs": [],
      "stateMutability": "nonpayable",
      "type": "function"
    },
    {
      "inputs": [],
      "name": "withdraw",
      "outputs": [],
      "stateMutability": "nonpayable",
      "type": "function"
    }
  ],
  "bytecode": "0x608060405260006007556001600860006101000a81548160ff0219169083151502179055503480156200003157600080fd5b506040518060400160405280600f81526020017f456c656374726963426f756e73657200000000000000000000000000000000008152506040518060400160405280600f81526020017f456c656374726963426f756e736572000000000000000000000000000000000081525081818160009081620000b1919062000436565b508060019081620000c3919062000436565b505050620000e6620000da620000ee60201b60201c565b620000f660201b60201c565b50506200051d565b600033905090565b6000600660009054906101000a900473ffffffffffffffffffffffffffffffffffffffff16905081600660006101000a81548173ffffffffffffffffffffffffffffffffffffffff021916908373ffffffffffffffffffffffffffffffffffffffff1602179055508173ffffffffffffffffffffffffffffffffffffffff168173ffffffffffffffffffffffffffffffffffffffff167f8be0079c531659141344cd1fd0a4f28419497f9722a3daafe3b4186f6b6457e060405160405180910390a35050565b600081519050919050565b7f4e487b7100000000000000000000000000000000000000000000000000000000600052604160045260246000fd5b7f4e487b7100000000000000000000000000000000000000000000000000000000600052602260045260246000fd5b600060028204905060018216806200023e57607f821691505b602082108103620002545762000253620001f6565b5b50919050565b60008190508160005260206000209050919050565b60006020601f8301049050919050565b600082821b905092915050565b600060088302620002be7fffffffffffffffffffffffffffffffffffffffffffffffffffffffffffffffff826200027f565b620002ca86836200027f565b95508019841693508086168417925050509392505050565b6000819050919050565b6000819050919050565b600062000317620003116200030b84620002e2565b620002ec565b620002e2565b9050919050565b6000819050919050565b6200033383620002f6565b6200034b62000342826200031e565b8484546200028c565b825550505050565b600090565b6200036262000353565b6200036f81848462000328565b505050565b5b8181101562000397576200038b60008262000358565b60018101905062000375565b5050565b601f821115620003e657620003b0816200025a565b620003bb846200026f565b81016020851015620003cb578190505b620003e3620003da856200026f565b83018262000374565b50505b505050565b600082821c905092915050565b60006200040b60001984600802620003eb565b1980831691505092915050565b6000620004268383620003f8565b9150826002028217905092915050565b6200044182620001bc565b67ffffffffffffffff8111156200045d576200045c620001c7565b5b62000469825462000225565b620004768282856200039b565b600060209050601f831160018114620004ae576000841562000499578287015190505b620004a5858262000418565b86555062000515565b601f198416620004be866200025a565b60005b82811015620004e857848901518255600182019150602085019450602081019050620004c1565b8683101562000508578489015162000504601f891682620003f8565b8355505b6001600288020188555050505b505050505050565b612b2b806200052d6000396000f3fe6080604052600436106101145760003560e01c806370a08231116100a0578063a22cb46511610064578063a22cb4651461036a578063b88d4fde14610393578063c87b56dd146103bc578063e985e9c5146103f9578063f2fde38b1461043657610114565b806370a0823114610297578063715018a6146102d4578063841718a6146102eb5780638da5cb5b1461031457806395d89b411461033f57610114565b80631249c58b116100e75780631249c58b146101e757806323b872dd146101f15780633ccfd60b1461021a57806342842e0e146102315780636352211e1461025a57610114565b806301ffc9a71461011957806306fdde0314610156578063081812fc14610181578063095ea7b3146101be575b600080fd5b34801561012557600080fd5b50610140600480360381019061013b9190611c19565b61045f565b60405161014d9190611c61565b60405180910390f35b34801561016257600080fd5b5061016b610541565b6040516101789190611d0c565b60405180910390f35b34801561018d57600080fd5b506101a860048036038101906101a39190611d64565b6105d3565b6040516101b59190611dd2565b60405180910390f35b3480156101ca57600080fd5b506101e560048036038101906101e09190611e19565b610619565b005b6101ef610730565b005b3480156101fd57600080fd5b5061021860048036038101906102139190611e59565b6107a1565b005b34801561022657600080fd5b5061022f610801565b005b34801561023d57600080fd5b5061025860048036038101906102539190611e59565b610852565b005b34801561026657600080fd5b50610281600480360381019061027c9190611d64565b610872565b60405161028e9190611dd2565b60405180910390f35b3480156102a357600080fd5b506102be60048036038101906102b99190611eac565b6108f8565b6040516102cb9190611ee8565b60405180910390f35b3480156102e057600080fd5b506102e96109af565b005b3480156102f757600080fd5b50610312600480360381019061030d9190611f2f565b6109c3565b005b34801561032057600080fd5b506103296109e8565b6040516103369190611dd2565b60405180910390f35b34801561034b57600080fd5b50610354610a12565b6040516103619190611d0c565b60405180910390f35b34801561037657600080fd5b50610391600480360381019061038c9190611f5c565b610aa4565b005b34801561039f57600080fd5b506103ba60048036038101906103b591906120d1565b610aba565b005b3480156103c857600080fd5b506103e360048036038101906103de9190611d64565b610b1c565b6040516103f09190611d0c565b60405180910390f35b34801561040557600080fd5b50610420600480360381019061041b9190612154565b610b84565b60405161042d9190611c61565b60405180910390f35b34801561044257600080fd5b5061045d60048036038101906104589190611eac565b610c18565b005b60007f80ac58cd000000000000000000000000000000000000000000000000000000007bffffffffffffffffffffffffffffffffffffffffffffffffffffffff1916827bffffffffffffffffffffffffffffffffffffffffffffffffffffffff1916148061052a57507f5b5e139f000000000000000000000000000000000000000000000000000000007bffffffffffffffffffffffffffffffffffffffffffffffffffffffff1916827bffffffffffffffffffffffffffffffffffffffffffffffffffffffff1916145b8061053a575061053982610c9b565b5b9050919050565b606060008054610550906121c3565b80601f016020809104026020016040519081016040528092919081815260200182805461057c906121c3565b80156105c95780601f1061059e576101008083540402835291602001916105c9565b820191906000526020600020905b8154815290600101906020018083116105ac57829003601f168201915b5050505050905090565b60006105de82610d05565b6004600083815260200190815260200160002060009054906101000a900473ffffffffffffffffffffffffffffffffffffffff169050919050565b600061062482610872565b90508073ffffffffffffffffffffffffffffffffffffffff168373ffffffffffffffffffffffffffffffffffffffff1603610694576040517f08c379a000000000000000000000000000000000000000000000000000000000815260040161068b90612266565b60405180910390fd5b8073ffffffffffffffffffffffffffffffffffffffff166106b3610d50565b73ffffffffffffffffffffffffffffffffffffffff1614806106e257506106e1816106dc610d50565b610b84565b5b610721576040517f08c379a0000000000000000000000000000000000000000000000000000000008152600401610718906122f8565b60405180910390fd5b61072b8383610d58565b505050565b600860009054906101000a900460ff1661077f576040517f08c379a000000000000000000000000000000000000000000000000000000000815260040161077690612364565b60405180910390fd5b61079f3360076000815480929190610796906123b3565b91905055610e11565b565b6107b26107ac610d50565b82610e2f565b6107f1576040517f08c379a00000000000000000000000000000000000000000000000000000000081526004016107e89061246d565b60405180910390fd5b6107fc838383610ec4565b505050565b6108096111bd565b3373ffffffffffffffffffffffffffffffffffffffff166108fc479081150290604051600060405180830381858888f1935050505015801561084f573d6000803e3d6000fd5b50565b61086d83838360405180602001604052806000815250610aba565b505050565b60008061087e8361123b565b9050600073ffffffffffffffffffffffffffffffffffffffff168173ffffffffffffffffffffffffffffffffffffffff16036108ef576040517f08c379a00000000000000000000000000000000000000000000000000000000081526004016108e6906124d9565b60405180910390fd5b80915050919050565b60008073ffffffffffffffffffffffffffffffffffffffff168273ffffffffffffffffffffffffffffffffffffffff1603610968576040517f08c379a000000000000000000000000000000000000000000000000000000000815260040161095f9061256b565b60405180910390fd5b600360008373ffffffffffffffffffffffffffffffffffffffff1673ffffffffffffffffffffffffffffffffffffffff168152602001908152602001600020549050919050565b6109b76111bd565b6109c16000611278565b565b6109cb6111bd565b80600860006101000a81548160ff02191690831515021790555050565b6000600660009054906101000a900473ffffffffffffffffffffffffffffffffffffffff16905090565b606060018054610a21906121c3565b80601f0160208091040260200160405190810160405280929190818152602001828054610a4d906121c3565b8015610a9a5780601f10610a6f57610100808354040283529160200191610a9a565b820191906000526020600020905b815481529060010190602001808311610a7d57829003601f168201915b5050505050905090565b610ab6610aaf610d50565b838361133e565b5050565b610acb610ac5610d50565b83610e2f565b610b0a576040517f08c379a0000000000000000000000000000000000000000000000000000000008152600401610b019061246d565b60405180910390fd5b610b16848484846114aa565b50505050565b6060610b2782610d05565b6000610b31611506565b90506000815111610b515760405180602001604052806000815250610b7c565b80610b5b8461151d565b604051602001610b6c9291906125c7565b6040516020818303038152906040525b915050919050565b6000600560008473ffffffffffffffffffffffffffffffffffffffff1673ffffffffffffffffffffffffffffffffffffffff16815260200190815260200160002060008373ffffffffffffffffffffffffffffffffffffffff1673ffffffffffffffffffffffffffffffffffffffff16815260200190815260200160002060009054906101000a900460ff16905092915050565b610c206111bd565b600073ffffffffffffffffffffffffffffffffffffffff168173ffffffffffffffffffffffffffffffffffffffff1603610c8f576040517f08c379a0000000000000000000000000000000000000000000000000000000008152600401610c869061265d565b60405180910390fd5b610c9881611278565b50565b60007f01ffc9a7000000000000000000000000000000000000000000000000000000007bffffffffffffffffffffffffffffffffffffffffffffffffffffffff1916827bffffffffffffffffffffffffffffffffffffffffffffffffffffffff1916149050919050565b610d0e816115eb565b610d4d576040517f08c379a0000000000000000000000000000000000000000000000000000000008152600401610d44906124d9565b60405180910390fd5b50565b600033905090565b816004600083815260200190815260200160002060006101000a81548173ffffffffffffffffffffffffffffffffffffffff021916908373ffffffffffffffffffffffffffffffffffffffff160217905550808273ffffffffffffffffffffffffffffffffffffffff16610dcb83610872565b73ffffffffffffffffffffffffffffffffffffffff167f8c5be1e5ebec7d5bd14f71427d1e84f3dd0314c0f7b2291e5b200ac8c7c3b92560405160405180910390a45050565b610e2b82826040518060200160405280600081525061162c565b5050565b600080610e3b83610872565b90508073ffffffffffffffffffffffffffffffffffffffff168473ffffffffffffffffffffffffffffffffffffffff161480610e7d5750610e7c8185610b84565b5b80610ebb57508373ffffffffffffffffffffffffffffffffffffffff16610ea3846105d3565b73ffffffffffffffffffffffffffffffffffffffff16145b91505092915050565b8273ffffffffffffffffffffffffffffffffffffffff16610ee482610872565b73ffffffffffffffffffffffffffffffffffffffff1614610f3a576040517f08c379a0000000000000000000000000000000000000000000000000000000008152600401610f31906126ef565b60405180910390fd5b600073ffffffffffffffffffffffffffffffffffffffff168273ffffffffffffffffffffffffffffffffffffffff1603610fa9576040517f08c379a0000000000000000000000000000000000000000000000000000000008152600401610fa090612781565b60405180910390fd5b610fb68383836001611687565b8273ffffffffffffffffffffffffffffffffffffffff16610fd682610872565b73ffffffffffffffffffffffffffffffffffffffff161461102c576040517f08c379a0000000000000000000000000000000000000000000000000000000008152600401611023906126ef565b60405180910390fd5b6004600082815260200190815260200160002060006101000a81549073ffffffffffffffffffffffffffffffffffffffff02191690556001600360008573ffffffffffffffffffffffffffffffffffffffff1673ffffffffffffffffffffffffffffffffffffffff168152602001908152602001600020600082825403925050819055506001600360008473ffffffffffffffffffffffffffffffffffffffff1673ffffffffffffffffffffffffffffffffffffffff16815260200190815260200160002060008282540192505081905550816002600083815260200190815260200160002060006101000a81548173ffffffffffffffffffffffffffffffffffffffff021916908373ffffffffffffffffffffffffffffffffffffffff160217905550808273ffffffffffffffffffffffffffffffffffffffff168473ffffffffffffffffffffffffffffffffffffffff167fddf252ad1be2c89b69c2b068fc378daa952ba7f163c4a11628f55a4df523b3ef60405160405180910390a46111b8838383600161168d565b505050565b6111c5610d50565b73ffffffffffffffffffffffffffffffffffffffff166111e36109e8565b73ffffffffffffffffffffffffffffffffffffffff1614611239576040517f08c379a0000000000000000000000000000000000000000000000000000000008152600401611230906127ed565b60405180910390fd5b565b60006002600083815260200190815260200160002060009054906101000a900473ffffffffffffffffffffffffffffffffffffffff169050919050565b6000600660009054906101000a900473ffffffffffffffffffffffffffffffffffffffff16905081600660006101000a81548173ffffffffffffffffffffffffffffffffffffffff021916908373ffffffffffffffffffffffffffffffffffffffff1602179055508173ffffffffffffffffffffffffffffffffffffffff168173ffffffffffffffffffffffffffffffffffffffff167f8be0079c531659141344cd1fd0a4f28419497f9722a3daafe3b4186f6b6457e060405160405180910390a35050565b8173ffffffffffffffffffffffffffffffffffffffff168373ffffffffffffffffffffffffffffffffffffffff16036113ac576040517f08c379a00000000000000000000000000000000000000000000000000000000081526004016113a390612859565b60405180910390fd5b80600560008573ffffffffffffffffffffffffffffffffffffffff1673ffffffffffffffffffffffffffffffffffffffff16815260200190815260200160002060008473ffffffffffffffffffffffffffffffffffffffff1673ffffffffffffffffffffffffffffffffffffffff16815260200190815260200160002060006101000a81548160ff0219169083151502179055508173ffffffffffffffffffffffffffffffffffffffff168373ffffffffffffffffffffffffffffffffffffffff167f17307eab39ab6107e8899845ad3d59bd9653f200f220920489ca2b5937696c318360405161149d9190611c61565b60405180910390a3505050565b6114b5848484610ec4565b6114c184848484611693565b611500576040517f08c379a00000000000000000000000000000000000000000000000000000000081526004016114f7906128eb565b60405180910390fd5b50505050565b606060405180602001604052806000815250905090565b60606000600161152c8461181a565b01905060008167ffffffffffffffff81111561154b5761154a611fa6565b5b6040519080825280601f01601f19166020018201604052801561157d5781602001600182028036833780820191505090505b509050600082602001820190505b6001156115e0578080600190039150507f3031323334353637383961626364656600000000000000000000000000000000600a86061a8153600a85816115d4576115d361290b565b5b0494506000850361158b575b819350505050919050565b60008073ffffffffffffffffffffffffffffffffffffffff1661160d8361123b565b73ffffffffffffffffffffffffffffffffffffffff1614159050919050565b611636838361196d565b6116436000848484611693565b611682576040517f08c379a0000000000000000000000000000000000000000000000000000000008152600401611679906128eb565b60405180910390fd5b505050565b50505050565b50505050565b60006116b48473ffffffffffffffffffffffffffffffffffffffff16611b8a565b1561180d578373ffffffffffffffffffffffffffffffffffffffff1663150b7a026116dd610d50565b8786866040518563ffffffff1660e01b81526004016116ff949392919061298f565b6020604051808303816000875af192505050801561173b57506040513d601f19601f8201168201806040525081019061173891906129f0565b60015b6117bd573d806000811461176b576040519150601f19603f3d011682016040523d82523d6000602084013e611770565b606091505b5060008151036117b5576040517f08c379a00000000000000000000000000000000000000000000000000000000081526004016117ac906128eb565b60405180910390fd5b805181602001fd5b63150b7a0260e01b7bffffffffffffffffffffffffffffffffffffffffffffffffffffffff1916817bffffffffffffffffffffffffffffffffffffffffffffffffffffffff191614915050611812565b600190505b949350505050565b600080600090507a184f03e93ff9f4daa797ed6e38ed64bf6a1f0100000000000000008310611878577a184f03e93ff9f4daa797ed6e38ed64bf6a1f010000000000000000838161186e5761186d61290b565b5b0492506040810190505b6d04ee2d6d415b85acef810000000083106118b5576d04ee2d6d415b85acef810000000083816118ab576118aa61290b565b5b0492506020810190505b662386f26fc1000083106118e457662386f26fc1000083816118da576118d961290b565b5b0492506010810190505b6305f5e100831061190d576305f5e10083816119035761190261290b565b5b0492506008810190505b61271083106119325761271083816119285761192761290b565b5b0492506004810190505b60648310611955576064838161194b5761194a61290b565b5b0492506002810190505b600a8310611964576001810190505b80915050919050565b600073ffffffffffffffffffffffffffffffffffffffff168273ffffffffffffffffffffffffffffffffffffffff16036119dc576040517f08c379a00000000000000000000000000000000000000000000000000000000081526004016119d390612a69565b60405180910390fd5b6119e5816115eb565b15611a25576040517f08c379a0000000000000000000000000000000000000000000000000000000008152600401611a1c90612ad5565b60405180910390fd5b611a33600083836001611687565b611a3c816115eb565b15611a7c576040517f08c379a0000000000000000000000000000000000000000000000000000000008152600401611a7390612ad5565b60405180910390fd5b6001600360008473ffffffffffffffffffffffffffffffffffffffff1673ffffffffffffffffffffffffffffffffffffffff16815260200190815260200160002060008282540192505081905550816002600083815260200190815260200160002060006101000a81548173ffffffffffffffffffffffffffffffffffffffff021916908373ffffffffffffffffffffffffffffffffffffffff160217905550808273ffffffffffffffffffffffffffffffffffffffff16600073ffffffffffffffffffffffffffffffffffffffff167fddf252ad1be2c89b69c2b068fc378daa952ba7f163c4a11628f55a4df523b3ef60405160405180910390a4611b8660008383600161168d565b5050565b6000808273ffffffffffffffffffffffffffffffffffffffff163b119050919050565b6000604051905090565b600080fd5b600080fd5b60007fffffffff0000000000000000000000000000000000000000000000000000000082169050919050565b611bf681611bc1565b8114611c0157600080fd5b50565b600081359050611c1381611bed565b92915050565b600060208284031215611c2f57611c2e611bb7565b5b6000611c3d84828501611c04565b91505092915050565b60008115159050919050565b611c5b81611c46565b82525050565b6000602082019050611c766000830184611c52565b92915050565b600081519050919050565b600082825260208201905092915050565b60005b83811015611cb6578082015181840152602081019050611c9b565b60008484015250505050565b6000601f19601f8301169050919050565b6000611cde82611c7c565b611ce88185611c87565b9350611cf8818560208601611c98565b611d0181611cc2565b840191505092915050565b60006020820190508181036000830152611d268184611cd3565b905092915050565b6000819050919050565b611d4181611d2e565b8114611d4c57600080fd5b50565b600081359050611d5e81611d38565b92915050565b600060208284031215611d7a57611d79611bb7565b5b6000611d8884828501611d4f565b91505092915050565b600073ffffffffffffffffffffffffffffffffffffffff82169050919050565b6000611dbc82611d91565b9050919050565b611dcc81611db1565b82525050565b6000602082019050611de76000830184611dc3565b92915050565b611df681611db1565b8114611e0157600080fd5b50565b600081359050611e1381611ded565b92915050565b60008060408385031215611e3057611e2f611bb7565b5b6000611e3e85828601611e04565b9250506020611e4f85828601611d4f565b9150509250929050565b600080600060608486031215611e7257611e71611bb7565b5b6000611e8086828701611e04565b9350506020611e9186828701611e04565b9250506040611ea286828701611d4f565b9150509250925092565b600060208284031215611ec257611ec1611bb7565b5b6000611ed084828501611e04565b91505092915050565b611ee281611d2e565b82525050565b6000602082019050611efd6000830184611ed9565b92915050565b611f0c81611c46565b8114611f1757600080fd5b50565b600081359050611f2981611f03565b92915050565b600060208284031215611f4557611f44611bb7565b5b6000611f5384828501611f1a565b91505092915050565b60008060408385031215611f7357611f72611bb7565b5b6000611f8185828601611e04565b9250506020611f9285828601611f1a565b9150509250929050565b600080fd5b600080fd5b7f4e487b7100000000000000000000000000000000000000000000000000000000600052604160045260246000fd5b611fde82611cc2565b810181811067ffffffffffffffff82111715611ffd57611ffc611fa6565b5b80604052505050565b6000612010611bad565b905061201c8282611fd5565b919050565b600067ffffffffffffffff82111561203c5761203b611fa6565b5b61204582611cc2565b9050602081019050919050565b82818337600083830152505050565b600061207461206f84612021565b612006565b9050828152602081018484840111156120905761208f611fa1565b5b61209b848285612052565b509392505050565b600082601f8301126120b8576120b7611f9c565b5b81356120c8848260208601612061565b91505092915050565b600080600080608085870312156120eb576120ea611bb7565b5b60006120f987828801611e04565b945050602061210a87828801611e04565b935050604061211b87828801611d4f565b925050606085013567ffffffffffffffff81111561213c5761213b611bbc565b5b612148878288016120a3565b91505092959194509250565b6000806040838503121561216b5761216a611bb7565b5b600061217985828601611e04565b925050602061218a85828601611e04565b9150509250929050565b7f4e487b7100000000000000000000000000000000000000000000000000000000600052602260045260246000fd5b600060028204905060018216806121db57607f821691505b6020821081036121ee576121ed612194565b5b50919050565b7f4552433732313a20617070726f76616c20746f2063757272656e74206f776e6560008201527f7200000000000000000000000000000000000000000000000000000000000000602082015250565b6000612250602183611c87565b915061225b826121f4565b604082019050919050565b6000602082019050818103600083015261227f81612243565b9050919050565b7f4552433732313a20617070726f76652063616c6c6572206973206e6f7420746f60008201527f6b656e206f776e6572206f7220617070726f76656420666f7220616c6c000000602082015250565b60006122e2603d83611c87565b91506122ed82612286565b604082019050919050565b60006020820190508181036000830152612311816122d5565b9050919050565b7f53616c65206973206e6f74206163746976650000000000000000000000000000600082015250565b600061234e601283611c87565b915061235982612318565b602082019050919050565b6000602082019050818103600083015261237d81612341565b9050919050565b7f4e487b7100000000000000000000000000000000000000000000000000000000600052601160045260246000fd5b60006123be82611d2e565b91507fffffffffffffffffffffffffffffffffffffffffffffffffffffffffffffffff82036123f0576123ef612384565b5b600182019050919050565b7f4552433732313a2063616c6c6572206973206e6f7420746f6b656e206f776e6560008201527f72206f7220617070726f76656400000000000000000000000000000000000000602082015250565b6000612457602d83611c87565b9150612462826123fb565b604082019050919050565b600060208201905081810360008301526124868161244a565b9050919050565b7f4552433732313a20696e76616c696420746f6b656e2049440000000000000000600082015250565b60006124c3601883611c87565b91506124ce8261248d565b602082019050919050565b600060208201905081810360008301526124f2816124b6565b9050919050565b7f4552433732313a2061646472657373207a65726f206973206e6f74206120766160008201527f6c6964206f776e65720000000000000000000000000000000000000000000000602082015250565b6000612555602983611c87565b9150612560826124f9565b604082019050919050565b6000602082019050818103600083015261258481612548565b9050919050565b600081905092915050565b60006125a182611c7c565b6125ab818561258b565b93506125bb818560208601611c98565b80840191505092915050565b60006125d38285612596565b91506125df8284612596565b91508190509392505050565b7f4f776e61626c653a206e6577206f776e657220697320746865207a65726f206160008201527f6464726573730000000000000000000000000000000000000000000000000000602082015250565b6000612647602683611c87565b9150612652826125eb565b604082019050919050565b600060208201905081810360008301526126768161263a565b9050919050565b7f4552433732313a207472616e736665722066726f6d20696e636f72726563742060008201527f6f776e6572000000000000000000000000000000000000000000000000000000602082015250565b60006126d9602583611c87565b91506126e48261267d565b604082019050919050565b60006020820190508181036000830152612708816126cc565b9050919050565b7f4552433732313a207472616e7366657220746f20746865207a65726f2061646460008201527f7265737300000000000000000000000000000000000000000000000000000000602082015250565b600061276b602483611c87565b91506127768261270f565b604082019050919050565b6000602082019050818103600083015261279a8161275e565b9050919050565b7f4f776e61626c653a2063616c6c6572206973206e6f7420746865206f776e6572600082015250565b60006127d7602083611c87565b91506127e2826127a1565b602082019050919050565b60006020820190508181036000830152612806816127ca565b9050919050565b7f4552433732313a20617070726f766520746f2063616c6c657200000000000000600082015250565b6000612843601983611c87565b915061284e8261280d565b602082019050919050565b6000602082019050818103600083015261287281612836565b9050919050565b7f4552433732313a207472616e7366657220746f206e6f6e20455243373231526560008201527f63656976657220696d706c656d656e7465720000000000000000000000000000602082015250565b60006128d5603283611c87565b91506128e082612879565b604082019050919050565b60006020820190508181036000830152612904816128c8565b9050919050565b7f4e487b7100000000000000000000000000000000000000000000000000000000600052601260045260246000fd5b600081519050919050565b600082825260208201905092915050565b60006129618261293a565b61296b8185612945565b935061297b818560208601611c98565b61298481611cc2565b840191505092915050565b60006080820190506129a46000830187611dc3565b6129b16020830186611dc3565b6129be6040830185611ed9565b81810360608301526129d08184612956565b905095945050505050565b6000815190506129ea81611bed565b92915050565b600060208284031215612a0657612a05611bb7565b5b6000612a14848285016129db565b91505092915050565b7f4552433732313a206d696e7420746f20746865207a65726f2061646472657373600082015250565b6000612a53602083611c87565b9150612a5e82612a1d565b602082019050919050565b60006020820190508181036000830152612a8281612a46565b9050919050565b7f4552433732313a20746f6b656e20616c7265616479206d696e74656400000000600082015250565b6000612abf601c83611c87565b9150612aca82612a89565b602082019050919050565b60006020820190508181036000830152612aee81612ab2565b905091905056fea26469706673582212204f35a82d0f559e5784d44dcd2e62b7e3c29e3dbcfce08bf2adc58dededc2303164736f6c63430008120033",
  "linkReferences": {},
  "deployedLinkReferences": {}
}